:020000040800F2
:10000000005000209D2F0008012D0008032D00083E
:1000100000000000000000000000000000000000E0
:10002000000000000000000000000000052D000896
:100030000000000000000000072D0008092D000846
:10004000ED2F0008ED2F0008ED2F0008ED2F000820
:10005000112D0008ED2F0008ED2F0008132D0008CA
:1000600000000000ED2F0008ED2F0008ED2F000824
:10007000312D0008ED2F0008ED2F0008ED2F0008AE
:10008000ED2F0008ED2F0008ED2F00080000000004
:10009000ED2F0008ED2F0008ED2F0008ED2F0008D0
:1000A000ED2F0008ED2F0008ED2F0008412D00086E
:1000B000ED2F0008ED2F00080000000000000000F8
:1000C00010B5064C2378002B07D1054B002B02D02E
:1000D000044800E000BF0123237010BDD0090020B8
:1000E0000000000058C50008044B10B5002B03D0D9
:1000F0000349044800E000BF10BDC04600000000F6
:10010000D409002058C50008002243088B4274D34C
:1001100003098B425FD3030A8B4244D3030B8B4208
:1001200028D3030C8B420DD3FF22090212BA030C11
:100130008B4202D31212090265D0030B8B4219D3F2
:1001400000E0090AC30B8B4201D3CB03C01A524112
:10015000830B8B4201D38B03C01A5241430B8B425A
:1001600001D34B03C01A5241030B8B4201D30B0343
:10017000C01A5241C30A8B4201D3CB02C01A52416A
:10018000830A8B4201D38B02C01A5241430A8B422D
:1001900001D34B02C01A5241030A8B4201D30B0216
:1001A000C01A5241CDD2C3098B4201D3CB01C01A30
:1001B000524183098B4201D38B01C01A524143093A
:1001C0008B4201D34B01C01A524103098B4201D328
:1001D0000B01C01A5241C3088B4201D3CB00C01A95
:1001E000524183088B4201D38B00C01A524143080D
:1001F0008B4201D34B00C01A5241411A00D2014632
:10020000524110467047FFE701B5002000F0F0F8BA
:1002100002BDC0460029F7D076E7704703460B437E
:100220007FD4002243088B4274D303098B425FD3EF
:10023000030A8B4244D3030B8B4228D3030C8B421B
:100240000DD3FF22090212BA030C8B4202D3121201
:10025000090265D0030B8B4219D300E0090AC30BD6
:100260008B4201D3CB03C01A5241830B8B4201D383
:100270008B03C01A5241430B8B4201D34B03C01A6C
:100280005241030B8B4201D30B03C01A5241C30AE4
:100290008B4201D3CB02C01A5241830A8B4201D355
:1002A0008B02C01A5241430A8B4201D34B02C01A3F
:1002B0005241030A8B4201D30B02C01A5241CDD2E4
:1002C000C3098B4201D3CB01C01A524183098B422F
:1002D00001D38B01C01A524143098B4201D34B0118
:1002E000C01A524103098B4201D30B01C01A52417B
:1002F000C3088B4201D3CB00C01A524183088B4202
:1003000001D38B00C01A524143088B4201D34B00EA
:10031000C01A5241411A00D201465241104670475C
:100320005DE0CA0F00D04942031000D34042534061
:1003300000229C4603098B422DD3030A8B4212D321
:10034000FC22890112BA030A8B420CD38901921153
:100350008B4208D3890192118B4204D389013AD090
:10036000921100E08909C3098B4201D3CB01C01A65
:10037000524183098B4201D38B01C01A5241430978
:100380008B4201D34B01C01A524103098B4201D366
:100390000B01C01A5241C3088B4201D3CB00C01AD3
:1003A000524183088B4201D38B00C01A5241D9D2EB
:1003B00043088B4201D34B00C01A5241411A00D26C
:1003C0000146634652415B10104601D34042002B68
:1003D00000D54942704763465B1000D3404201B5E7
:1003E000002000F005F802BD0029F8D016E770479C
:1003F0007047C046002B11D1002A0FD1002900D12F
:10040000002802D00021C943080007B4024802A115
:100410004018029003BDC046D9FFFFFF03B46846F1
:1004200001B5029800F034F8019B9E4602B00CBC66
:100430007047C046F0B5CE46474680B5070099469E
:100440003B0C9C4613041B0C1D000E00614600046F
:10045000140C000C45434B4360436143C0182C0C03
:1004600020188C46834203D980235B029846C444FB
:10047000494679437243030C63442D042D0CC9187B
:10048000000440198918C0BCB946B046F0BDC0464A
:10049000F0B557464E464546DE46E0B504000D0031
:1004A0009246994683B08B4230D82DD0494650466B
:1004B00000F0D0FC29000600200000F0CBFC331A2D
:1004C0009846203B9B4633D45A4653469340424677
:1004D0001F00534693401E00AF423AD8AF4200D1AE
:1004E00078E05B46A41BBD41002B00DA75E00022DA
:1004F00000230092019301235A4693400193012364
:1005000042469340009328E08242CFD90022002344
:10051000009201930C9B002B01D01C605D60009841
:10052000019903B0F0BCBB46B246A946A046F0BD57
:10053000424620239B1A5246DA40414613004A465F
:100540008A40170042461F43534693401E00AF4265
:10055000C4D900220023009201934346002BD9D036
:10056000FB0772081A4346467B080EE0AB4201D1F6
:10057000A2420CD8A41A9D41012024196D410021EA
:10058000013E24184D41002E06D0AB42EED9013E6B
:1005900024196D41002EF8D1009801995B4600198D
:1005A0006941002B24DB2B005A464446D3402A00E5
:1005B000E2401C005B461500002B2ADB26009E4013
:1005C000330026004746BE403200801A9941009011
:1005D00001919FE7A342BCD883E742462023002134
:1005E0009B1A0022009101920122DA40019286E7D3
:1005F000424620239B1A2A0046469A402300F34095
:10060000444613432A00E2401C005B461500002BC1
:10061000D4DA42462F002023260097409B1ADE4062
:100620003B003343CDE7C046F8B557464E464546F6
:10063000DE46E0B51E0017004A000B03520D5B0AB0
:100640009046420F1A43CD0FCD4C3103C300944660
:1006500070007A0F490AFF009A46B946400DF60F1E
:100660001143A04200D1B1E001225640B346B54249
:1006700000D188E04246121A002A00DCAEE00028D1
:1006800000D1C1E0BE48804500D151E18020000486
:100690000143382A00DD7BE11F2A00DDEEE1202046
:1006A0003E00801A0C00D640D1408740624684400C
:1006B000521A781E8741944634432743DC1BA342D9
:1006C0009B4162465B42D31A99464B461B0200D4BB
:1006D00018E14B465802430A99464B46002B00D17D
:1006E00037E1484600F098FB01000839202322003A
:1006F00048465B1ADA4088408C40434610438845A0
:1007000000DD36E1C91A4B1C1F2B00DDEAE0202278
:100710002600D21A01009440DE40D84000239140C8
:10072000621E94418146984631430C43630709D0C9
:100730000F232340042B05D0231DA342A441644270
:10074000A1441C004B461B0200D4DEE041468C4B0A
:100750000131994200D1E7E04B468A48E408034062
:10076000180049055B07400223434A0D040B12059C
:10077000ED0722432A4318001100F0BCBB46B246E5
:10078000A946A046F8BD4246121A002A52DD0028AA
:1007900000D19CE0A04500D1CAE0802000040143C4
:1007A000382A00DD49E11F2A00DC97E110000E0025
:1007B0002038C640202A04D04020821A91400F439E
:1007C000B9464C46621E944134433AE10A003A432A
:1007D00028D0B346B5422BD06B4A4244002A5DD0A4
:1007E00042464446821A002C00D0F5E065461D437F
:1007F00000D19CE1551E012A00D1FBE1604CA242D0
:1008000000D1BDE12A00F0E00800384300D1C3E088
:10081000501E012A00D1A8E1594CA24200D187E024
:10082000020036E701225640B346B54200D021E728
:10083000554A4244002A00D1B5E042464446821A55
:10084000002C00D138E14E4EB04200D1DEE18026CE
:10085000644636043443A446382A00DD96E11F2A54
:1008600000DD24E22026B41AA24664465646B4406F
:10087000A1461C004E46D440264334005646B340A1
:100880005E1EB3411C436346D340C918E419BC4201
:10089000BF417F42B94680468944D8E040463B4C40
:1008A0000130204200D0B4E04046002800D044E1AE
:1008B0006046184300D190E10800384300D0AAE117
:1008C0006146DB0849070B436146CC0827E0080076
:1008D000384361D0501E012A00D139E1A24227D00D
:1008E00002005DE702001F39CA401100202B03D02F
:1008F0004022D31A98400443631E9C41002399462A
:1009000098460C43630700D012E74B464A46E4087A
:100910005B072343D408424619498A420ED0240378
:100920005205240B520D22E70A00002400231EE783
:10093000DB086246520713436246D4081A0022437A
:1009400000D1FCE180221203144324030C4A240B3F
:100950000DE7200000F060FA010018311F2900DCCB
:10096000C4E608388440434620000024884500DC63
:10097000C8E6044A5B1A104098468146D6E6C0464F
:10098000FF070000FFFF7FFF01F8FFFFFE070000E9
:100990000F437A1E974191E66146DB0849070B43F6
:1009A0006146CC08B8E74046D34C0130204200D025
:1009B000A2E04046002800D001E16046184300D183
:1009C0005EE10800384300D05FE16146DB0849077B
:1009D0000B436146CC08A2E7C84DA84200D1CFE046
:1009E000802564462D042C43A446382A56DC1F2A51
:1009F00000DDD1E020251E00AD1A6446AB40AC40BE
:100A0000D6405D1EAB41344323436446D440091BAA
:100A100049E06046DC1B461AA342804140428146C1
:100A200030004E46801B8146000276D44B4623435D
:100A300000D052E60024002571E739430C00621E05
:100A40009441E4189C429B415B42634499464B4667
:100A50001B0200D456E701239C46A84BE04498456E
:100A600038D04B46A64801220340180063081440C2
:100A70001C43C3071C434308994657E610000E0069
:100A80002038C640202A04D04020821A91400F43CB
:100A9000B9464F467A1E974137430FE662461A43DE
:100AA00013005A1E9341FC1AA742BF417F42CB1B41
:100AB00099465D46804608E666461E4300D1BEE084
:100AC000561E012A00D109E18C4CA24200D119E145
:100AD0003200C1E642460024002348E620200C00F4
:100AE000801A3E0087408440D640781E8741D1401E
:100AF00034433C438C44A4E7804A904200D1E9E06F
:100B0000DF199F429B4161445B42C918CC077F08B3
:100B10004B08994680463C43F4E6FC1AA742BF4185
:100B200063467F42C91ACB1B99465D46D5E5FF084F
:100B30004B075D463B43CC08EEE662461A4300D0C5
:100B400082E00B003B431BD1802400252403F9E6FF
:100B5000DC199C429B41614489465B4299444B4667
:100B60001B0244D401239846CCE6DC1B6246A34218
:100B70009B41511A5B42CB1A994601239846A4E542
:100B8000FF084B075D463B43CC08D7E662461A4355
:100B90001400631E9C4179E615006446203DEC403C
:100BA000A046202A05D040256446AA1A9440234333
:100BB0009A465446631E9C414346234373E762466C
:100BC0001A4323D00A003A4300D0A0E06246DB0873
:100BD000520713436246D408B0E60B003B4300D1F2
:100BE00028E7FF084B075D463B43CC0897E6022306
:100BF000984636E7FC1AA742BF4163467F42C91AAE
:100C0000CB1B994601235D4698465EE54B07FF08DE
:100C10003B43CC0892E6DC1B6046A342B641401A37
:100C20007642801B8146000260D5FC1AA742BF4174
:100C300063467F42C91ACB1B99465D4676E5FF089D
:100C40004B073B43CC0867E60A00DB083A4300D178
:100C50006FE66246520713436246D40880221203AD
:100C6000144207D0C808104204D15D460400FB08B6
:100C700049070B435A0FDB00DB08520713435DE6BD
:100C80004B07FF083B43CC0849E6DC199C429B41DB
:100C9000614489465B4299444B461B0200D431E6CD
:100CA0004A46174B1A400123914698462AE61600F9
:100CB0006446203EF440A046202A05D040266446E3
:100CC000B21A944023439A465446631E9C414346BD
:100CD0001C43DBE502000024002348E5DC19BC428C
:100CE000BF41614489467F42B94438E74B462343BC
:100CF00000D19FE606E6C046FE070000FF070000A1
:100D0000FFFF7FFFFF084B073B43CC0816E6624618
:100D1000DB08520713436246D408802212031442B0
:100D200007D0C808104204D15D460400FB084907FB
:100D30000B435A0FDB005207DB081343FEE5002389
:100D4000014A1C0013E5C046FF0700000A0030B549
:100D5000134C530009030500090B00205B0DD20F53
:100D6000A34204DD0F48834202DD0F4BD01830BD93
:100D70008020400301430D48C01A1F2808DD0C489D
:100D8000C31AD9400B005842002AF0D11800EEE7F0
:100D9000084CC540A446634499400B002B43F2E73E
:100DA000FE0300001D040000FFFFFF7F330400006E
:100DB00013040000EDFBFFFF70B5002816D0C31729
:100DC000C5185D40C40F280000F026F8114A121A19
:100DD0000A2816DC03002E0015339E400B23181A38
:100DE000C54052052D032D0B530D03E000240023B5
:100DF000002500261B052B43E40723433000190080
:100E000070BD0B38854052052D0300262D0B530D68
:100E1000F0E7C0461E0400001C2101231B04984279
:100E200001D3000C10391B0A984201D3000A08397B
:100E30001B09984201D30009043902A2105C401832
:100E40007047C046040302020101010100000000D6
:100E50000000000010B5002903D1FFF7DDFF2030AE
:100E600002E00800FFF7D8FF10BDC046844610001E
:100E700062468C461900634600E0C0461FB500F08C
:100E80000DFF002801D40021C8421FBD10B500F09D
:100E90005DFE4042013010BD10B500F0FFFE00289D
:100EA00001DB002010BD012010BDC04610B500F0D0
:100EB000F5FE002801DD002010BD012010BDC04658
:100EC00010B500F085FE002801DC002010BD0120D7
:100ED00010BDC04610B500F07BFE002801DA0020EE
:100EE00010BD012010BDC046F0B54F464646D6465F
:100EF0000D000400C0B51F0011002803620F400A56
:100F000010437A00520DE3003C039146640AFA0F45
:100F10004F0F6E0027439246B846760DED0FC9007D
:100F2000954200D199E04C46341BA446002C00DCCD
:100F30007CE04A46002A00D1B8E0C54A964200D17A
:100F40001CE180223C0012041443A0466246382A69
:100F500000DD61E11F2A00DDCCE164462022121B86
:100F6000444694400F00A14664469140E7404C46F9
:100F70004A1E91413C43424621436446E240801A66
:100F80005C1AA3429B415F42C71B3B0200D4D0E0E6
:100F90007F027F0A002F00D1FFE03800FFF73CFFFF
:100FA00001000839202322005B1A8F40DA408C4070
:100FB0001743B14200DAFFE0891B4B1C1F2B00DDF9
:100FC000A8E020223900D21A200094409140D84055
:100FD000621E9441DF40002601430C43630709D0A1
:100FE0000F232340042B05D0231DA342A4416442B8
:100FF0003F191C003B0200D49EE0954B01369E42F7
:1010000000D1B7E0934AE40817407B0771057F02DF
:1010100023433F0B4A0D12053A43ED072A431800BC
:101020001100E0BCBA46B146A846F0BD002C4BD03A
:101030004C46A41BA446002E00D023E104001C4310
:1010400000D1AFE16246541E012A00D115E2804D65
:10105000AC4500D1C8E1A4461BE14A46B21A944609
:10106000002A00DCACE04A46002A43D0784A964287
:1010700000D1AFE180223C0012041443A046624636
:10108000382A67DC1F2A00DC5FE14746203AD74058
:101090006246202A05D064464022121B44469440F2
:1010A00021434A1E91410C003C4357E03A000A4359
:1010B00000D105E12200013A012C00D182E1644C0B
:1010C000A4455BD0944641E7634C771C274200D08F
:1010D000C4E004001C43002E00D069E1002C00D1C4
:1010E000BFE144460C4300D0D0E14207DB08134384
:1010F000C00829E03A000A4300D170E16246644624
:10110000013A012C00D1E0E0514CA44500D161E14D
:101110009446B4E73A001F39CA401100202B03D08F
:101120004022D31A9F403C43631E9C410027002667
:101130000C43630700D053E7B446E4087B0723431E
:10114000F808434A94451DD06246070352053F0BF9
:10115000520D60E744460C43621E9441E4189C42E1
:101160009B415F423F183B02E3D5394B01369E421B
:1011700000D0B5E03200002700234CE74207DB082F
:101180001343C0081A00024300D1E1E180273F0366
:1011900007433F032E4A3F0B3DE72000FFF73CFE8D
:1011A000010018311F2900DCFCE6083884402700C4
:1011B0000024B14200DBFFE6264A761A17400DE70D
:1011C000002A2FD04A46921B9446002E00D1ADE053
:1011D0001F4A914500D10FE180221204104362465C
:1011E000382A00DD0FE11F2A00DD80E1644620225D
:1011F0001E00121B6746040093409440FE405A1E96
:101200009341F84034431C43804464188C42BF41EE
:101210007F424E464744A6E742460A4311004A1E13
:101220009141ADE60C4C721C224200D0A1E00200BC
:101230001A43002E00D0FAE0002A00D145E13A001E
:101240000A4300D046E14207DB081343C0087BE7AE
:10125000FF070000FFFF7FFFFE07000047465C1A04
:10126000C21BA342BF417F42B94617004A46BF1A7C
:101270003A0200D58DE023003B4300D08AE60020EF
:10128000002561E7B44CA14500D1ADE080242404E1
:1012900020436446382C3DDC62461F2C00DDB7E05D
:1012A00020251E002D1B0400AB40AC40D640D04092
:1012B00042465D1EAB413443121A904623432CE054
:1012C0004207DB081343C0083BE75C189C429B4184
:1012D00040445B42C71801263B0200D429E702269E
:1012E0009E4A63081740012214401C43FB071C431D
:1012F0007F0873E64446203AD4406246202A05D04F
:1013000067464022D21B4746974039434A1E9141C7
:10131000214335E60343581E8341CC1AA142BF4105
:1013200043467F4255464E46DF1B2EE602001A43D7
:1013300000D1BDE062466446013A012C00D1E5E0EF
:10134000854CA44558D0944649E764462022121B98
:10135000444694400F00A14664469140E7404C4605
:101360004A1E91413C4342460C436146CA408018A4
:10137000F4E6794CA24200D1FDE6591899429B410E
:1013800040445F42C719FC07490816000C437F0818
:10139000CFE6CC1AA142BF4143467F42181A5546B8
:1013A000C71BF7E5C9087B0755460B43F808C8E695
:1013B000002C00D081E043460B4315D1802000254E
:1013C0000003E3E65C1AA3429B41C71B5B42012674
:1013D000FF1ADAE54207DB081343C008D2E64207EA
:1013E000DB081343C008ACE643464246C9085B0726
:1013F00055460B43D008C5E6434642465B07C9083D
:101400000B43D008BEE603431C00631E9C41FCE670
:101410000200203CE24014006246202A03D040250E
:10142000AD1AA8400343581E8341234375E7002AA1
:10143000E2D03A000A43CDD04207DB0813438022B2
:10144000C0081203104206D0FC08144203D1200049
:10145000CB087A0713435A0FDB005207DB0813430C
:1014600090E643460B4300D109E743464246C9088C
:101470005B0755460B43D00866E6CC1AA14289416A
:101480003F1A4942554601267F1A7EE542465C1ABC
:10149000871AA34292415242BF1A3A023DD5CC1A52
:1014A000A1428941434649421F1A55467F1A95E594
:1014B0007B07C9080B43F80843E64446DB080C43A6
:1014C00030D142071343C0085CE67B07C9080B43D1
:1014D000F80839E65C189C429B4140445B42C718BF
:1014E0003B0200D425E61D4B01261F4021E60400E7
:1014F000203AD4406246202A04D040226646921BFD
:10150000904003435A1E93411C437EE65C188C4274
:101510008941404449424718DDE623003B4300D15E
:10152000ADE606E6440723438024C0082403204296
:1015300008D04246D608264204D155463000CB0892
:1015400051070B435A0FDB00DB085207134319E620
:101550000023014A1F005EE5FF070000FFFF7FFF39
:10156000F0B557464E464546DE46E0B58146050095
:101570000C03480092461F0085B0240B400DCE0F8F
:10158000002800D156E1D44B984200D172E16B0F94
:10159000E4001C4380231B0423439846CF4BED00FB
:1015A0009B4600239946834400933C037B005046AE
:1015B000240B5B0DFF0F002B00D11FE1C64A9342A5
:1015C00000D162E1C549420F8C46E40059461443FC
:1015D000802263441204CB1A14439B46C2000020AD
:1015E00033007B409A464B460F2B27D8BC499B00C3
:1015F000CB589F46B246009B022B16D0032B00D13E
:101600008EE2012B00D0D9E00023002400255246B1
:101610001B052343D20713432800190005B0F0BC73
:10162000BB46B246A946A046F0BD00240025AA4B01
:10163000EDE7BA46A04615000090DCE7444500D22D
:10164000C7E100D1C2E101235B429C462E00404627
:101650000025E3442302140E1C431B0C994623046B
:101660001F0C1202494600920197FEF7D3FD0200BB
:101670007A430B04310C804619438A4207D901236F
:101680005B429C460919E0448C4200D807E2881A64
:101690004946FEF7BFFD09048C4631046646019AAF
:1016A000090C4243030031438A4204D90919013B22
:1016B0008C4200D8EDE1881A424612041A43904643
:1016C0004146009B0E041B0C1F000293009B360C2E
:1016D0001B04190C0B007343120C7E4303915143FE
:1016E0007A431F0CBC4676186644B14203D9802168
:1016F00049028C466244310C8A1831041E04360CAF
:101700008E19904202D312D1B54210D24346591ECF
:10171000009B9C4665441F009D429B415B421B19F8
:10172000C018844200D2A0E100D19BE18846AE1BE4
:10173000B542AD41801A6D42401B844200D1D5E1D3
:101740004946FEF767FD019A0B044243310C050040
:1017500019438A4200D96CE1881A4946FEF75AFDBE
:10176000019A360442430904360C03000E43B24288
:1017700000D953E10398B61A02002D041D43029FBD
:101780002B041B0C5A437B439C46290C4843130CE7
:10179000844463447943984203D9802040028446BC
:1017A0006144180C12041B04120C41189B188E4241
:1017B00000D2FFE000D1FAE001231D43494A5A4418
:1017C000002A00DCAAE06B0700D03DE1ED084346AB
:1017D000DB0106D54246444B1A4090468022D20097
:1017E0005A44424B9A4200DD1FE743465B071D43C4
:1017F000434652055C02240B530D08E75246224330
:1018000000D17BE0002C00D1FAE02000FFF704FBC0
:1018100002000B3A1D2301009B1A52460839DA4098
:101820008C40144352468A40314B58449B46834473
:101830000020D5E64B462343984644D0002C00D1E7
:10184000CEE02000FFF7E8FA010002000B391D236B
:101850005B1A49461000D940083884400B004D46B9
:101860002343984685402348831A9B460023994684
:1018700000939AE64B46234398461DD10823994688
:10188000063B0025834600938FE65246224309D14A
:10189000022349461943184B89469C4600240220DE
:1018A000E3449DE603234A461A43134B91469C4664
:1018B00052460320E34493E60C239946093BA04695
:1018C0008346009371E60423994600239B46013327
:1018D0000025009369E6C046FF07000001FCFFFFFA
:1018E00070C50008FF030000FFFFFFFEFE070000B9
:1018F000F30300000DFCFFFF01F8FFFF4946012341
:1019000019438946002401206AE6002380249A4670
:1019100000258A4B24037AE601256D4201239B1A98
:10192000382B00DD70E61F2B00DCBFE01F21494291
:101930008A1A4146D1400A00202B04D04146804BF0
:101940005B4499400D436B1E9D4107232A431D00B4
:1019500000241540134200D1D4E00F210023114090
:10196000042900D1CBE0111D9142924152429B18B3
:101970000A00190200D4C2E001230024002546E633
:10198000802341461B03194208D01C4206D11C4348
:101990002403BA461500694B240B38E680244346DD
:1019A00024031C432403B246644B240B2FE6002B74
:1019B00000D103E7A619681EA64200D28DE08E4230
:1019C00000D2A3E000D1B3E00500F5E6AA4200D9B9
:1019D00039E64346DE0758086B081E43ED0739E633
:1019E0004846FFF719FA01000200153120321C2980
:1019F00000DC2CE74B46083883400025984632E748
:101A0000FFF70AFA03001A00153220301C2A00DC06
:101A100000E75446083B00229C4005E73619013B8D
:101A2000B44200D9A6E6B24200D8A3E6831E361916
:101A3000A0E60919013D8C4200D98DE68A4200D802
:101A40008AE6851E091987E60F232B40042B00D157
:101A5000BCE605235B42AB429B4104355B42ED088B
:101A60009844B4E6AF4200D960E6824204D800D080
:101A70005CE6AE4200D859E602235B429C46009BDE
:101A8000E0449C4665449D429B415B421B19C01843
:101A90004DE68A4200D80EE6831E09190BE68A42FB
:101AA00000D8F4E5831E98460919F0E52549280079
:101AB00059448D4042468A40691E8D414146D84076
:101AC000D94002432A430B00510700D151E70F21AF
:101AD0001140042900D046E74BE705008E4200D0B4
:101AE0006AE6009A934200D066E667E6164A5A44D0
:101AF000002A00DC10E701230025984467E65D0713
:101B00005B021C0BD2080023154380E50098023DC0
:101B100042008242BF417F423C1936190092DDE704
:101B20008024434624031C432403044B240B6EE50A
:101B3000009A9A42EAD30500D3E7C046FF070000A7
:101B40003E0400001E040000FF030000F0B54E46F6
:101B50004546DE4657469046E0B517001A03120B7D
:101B60000500844619480E034C0091465A00DB0FCD
:101B70009B46360B640DC90F520D844219D0824228
:101B800010D0012094420ED14E450CD10120C44505
:101B900009D1594517D0002C05D130002843431EE8
:101BA000984100E00120F0BCBB46B246A946A046E1
:101BB000F0BD330001202B43F5D1A242F3D14B46B7
:101BC0003B43F0D1E2E70020EDE7C046FF0700000D
:101BD000F0B54746CE460400180016001B031B0B49
:101BE0002D4D4A00994680B543000F03A446B046E8
:101BF0003F0B520DC90F5B0DC00FAA4221D0AB4263
:101C000013D0002A22D13C43002B02D14D462E4353
:101C100022D0002C10D0814222D00220013908406D
:101C20000138C0BCB946B046F0BD4D462E4329D15F
:101C3000002AF0D13C43EED10028F2D101204042ED
:101C4000EFE73D0025431DD19342EED0002BE2D1BA
:101C50004C462643DFD1E0E70020002CE1D0DCE752
:101C60009A420ADCE8DB4F45D7D80ED000204F451A
:101C7000D7D20029E2D00800D3E7434258414000C0
:101C80000138CEE702204042CBE7C445C5D800204A
:101C9000C445C6D2EDE7C046FF070000F0B5474691
:101CA000CE460400180016001B031B0B2C4D4A00E7
:101CB000994680B543000F03A446B0463F0B520D32
:101CC000C90F5B0DC00FAA420DD0AB4210D0002A45
:101CD00027D13C43002B11D14D462E430ED100207D
:101CE000002C15D00EE03D00254310D1934218D1B1
:101CF0004D462E430BD1002A02D13C43002C0BD081
:101D0000814214D0022001390840013800E002204D
:101D1000C0BCB946B046F0BD0028F9D10120404210
:101D2000F6E7002BECD14C462643E9D1EAE79A428C
:101D300004DD4342584140000138E9E79A42EBDBB9
:101D40004F45DFD806D000204F45E1D20029E5D02D
:101D50000800DDE7C445D5D80020C445D8D2F5E752
:101D6000FF070000F0B557464E464546DE46E0B553
:101D700098460C034B000600924687B0240B5B0D7F
:101D8000CF0F002B00D15CE1D94A934200D175E11D
:101D9000420FE4001443802212041443D54AC500C4
:101DA000944663440093002399469B46434642462B
:101DB0001E03D20F5B0050469046360B5B0D00D1E0
:101DC00020E1CB4A934200D162E1CA49420F8C46DE
:101DD00000996344F6008C46164380229C4412040A
:101DE00063461643C2000020009300994346013128
:101DF0008C4649467B4001930F2926D8BE4B89006B
:101E000059588F46434601933400150083465B467C
:101E1000022B16D0032B00D103E2012B00D0CDE022
:101E2000002200240025019B12052243DB071A43F0
:101E30002800110007B0F0BCBB46B246A946A04638
:101E4000F0BD00240025AA4AEDE7280C2D042D0C36
:101E50002B00110C1204120C5343984613002F0050
:101E6000434399464F434F44BB4647460B003F0C04
:101E7000BA464343DA440293D14504D980277F020E
:101E8000B9464B44029353461B0C9B4653461F04D2
:101E900043461B041B0C98463B0043440493330CFD
:101EA0003604360C98463300434399464346434331
:101EB0002F009A46434677435D43380C4D444519FD
:101EC000A94503D980235B029946CA443F04280CE4
:101ED0003F0C2D04ED19270C2404240C03002000D2
:101EE00050437A4391463A0053440593030C9A4673
:101EF0004A43614349445144AB44894503D9802353
:101F00005B0299464A4400040B0C000C09040918B2
:101F100020009946434670435C437E435F43030C75
:101F20009846A41944444A440397A64204D98023FE
:101F30005B029846474403972304029E9A46059BFA
:101F40005E449846AE42AD4176188E428941000407
:101F5000000C504440446D424719B84693464942EC
:101F60008946C344D94498428041A845AD41934530
:101F70009241894589416D4240422843240C524296
:101F800049420A43039B00198018C7184B46DC0DD1
:101F9000049B75021D436A1E95414B46F60D7F0258
:101FA00035435A023C431543FB0100D41CE1012197
:101FB0006A080D401543E207154364084F49614420
:101FC000002900DCB0E06B0709D00F222A40042A68
:101FD00005D02A1DAA42AD416D4264191500E301E6
:101FE00004D58021464AC90014406144454A9142C3
:101FF00000DD26E76207ED08640249051543240B5E
:102000004A0D10E75246324300D17FE0002E00D146
:10201000DCE03000FEF700FF02000B3A1D23010058
:102020009B1A52460839DA408E40164352468A407F
:10203000009B3549181A03008C4663440020009326
:10204000D3E6250005434AD0002C00D1B0E02000A3
:10205000FEF7E2FE010002000B391D2310005B1A9F
:102060003100350008388440D94085400C4326486B
:10207000831A0093002399469B4697E60500254363
:1020800026D1082200930223002491469B468DE628
:102090005246009B324310D1154900268C466344BA
:1020A0004946009302231943894602209DE65B4678
:1020B0000197022B00D0ADE6C3E60D4A03209446FB
:1020C00063444A46009303231A43914652468CE6E2
:1020D0000C2200930323050091469B4666E60423E9
:1020E000994600230093013300249B465EE6C046D8
:1020F000FF07000001FCFFFFB0C50008FF03000060
:10210000FFFFFFFEFE0700000DFCFFFF4946012315
:10211000194389460026012067E600238024002514
:10212000434A019324037EE60120401A382800DD4B
:1021300076E61F285BDD1F2223005242511ACB4056
:102140001900202803D03B4A6244944025436A1E6C
:1021500095412A000A4307210D0000241540114231
:102160005BD00F2100241140042953D0111D91424E
:1021700092415242A4180A0023024BD501220024A6
:10218000002550E680231B031C4209D01E4207D1C4
:1021900033431C0343461500240B254A019342E6B2
:1021A0008022120314432403214A240B01973AE6A8
:1021B000FEF732FE01000200153120321C2900DC3E
:1021C0004BE7340008380025844050E7FEF724FE32
:1021D00003001A00153220301C2A00DC1EE7564688
:1021E000083B00229E4023E7009B9C46E6E61249FE
:1021F000220061442E008D408A40C640691E8D41F8
:1022000032432A43C4405307B6D00F21114004295A
:10221000ACD1B1E765076402240BD2081543002254
:1022200001E68022120314432403014A240BFAE539
:10223000FF0700003E0400001E04000070B505000A
:102240000C481C0316005B000A034900120B490DE1
:10225000240B5B0D814208D0064A0020934203D133
:1022600020003043431E984170BD01202A43FBD11A
:10227000F2E7C046FF07000010B5041E10D0FEF7BD
:10228000CBFD0F4B1B1A0A2811DC0B222100121A5E
:10229000D14015300A035B058440120B5B0D01E051
:1022A000002300221B0513432000190010BD22004B
:1022B0000B3882405B0512030024120B5B0DF1E723
:1022C0001E04000000B583B008220021684604F017
:1022D0004DFA1A481A4B03600023C363C02212064A
:1022E00042608360836301220261C3601F328354B2
:1022F000013283548362C222FF324262963AFF3A2D
:102300008354283A4261036383614363C36100F0ED
:10231000D5FE00280CD10123009380235B0101939B
:102320006946064801F032F8002804D103B000BD28
:1023300000F076FBEFE700F073FBF7E7EC09002015
:102340000024014010B586B004001422002101A829
:1023500004F00CFA2268124B9A4201D006B010BD6C
:10236000104B596B802292000A435A63D96A0122AA
:102370001143D962DB6A13400093009B019203234F
:102380000293A02001A9C00501F012F9002200214A
:102390000C2001F059F80C2001F086F8DEE7C04669
:1023A000002401400010024010B500F0D5F910BD26
:1023B00010B5042000F0D0F910BD10B5052000F0D4
:1023C000CBF910BD10B500F0E3F910BD30B587B002
:1023D0001422002101A804F0C9F98025AD0001955F
:1023E000112302930F3B0493054C01A9200001F037
:1023F000DFF801222900200001F0AFF907B030BD5D
:102400000004005030B587B01422002101A804F068
:10241000ADF98025AD000195112302930F3B049384
:10242000054C01A9200001F0C3F80022290020007A
:1024300001F093F907B030BD0004005000B587B03B
:102440000023029301220492039380239B000193B3
:1024500001A9024801F0ACF807B000BD000400502B
:1024600010B5802101224900014801F076F910BD24
:102470000004005010B5802100224900014801F0FD
:102480006CF910BD0004005010B5FFF79FFF082045
:10249000FFF78AFFFFF7E4FF0820FFF785FFFFF74C
:1024A000B1FF0820FFF780FFFFF7E4FF0820FFF7E8
:1024B0007BFF10BD70B50400002509E0FFF7A2FF07
:1024C000FFF7CEFFFFF774FF6400E4B20135EDB211
:1024D000072D09D8FFF7CEFFFFF76AFF63B2002B85
:1024E000ECDAFFF773FFEBE7FFF7C4FF0820FFF715
:1024F0005BFFFFF7A3FF0820FFF756FF70BD00004A
:1025000070B5FFF7B7FFFFF799FF0820FFF74CFF03
:102510000025002408E064000443E4B2FFF7AAFFAA
:10252000FFF74BFF0135EDB2072D0CD8FFF798FFF1
:10253000FFF743FF80218900064801F007F90028D2
:10254000E9D00120E7E7FFF779FF0820FFF72CFF2C
:10255000200070BD0004005010B5FFF78BFFFFF79F
:102560006DFF0820FFF720FFFFF77AFF0820FFF735
:102570001BFF0024802189000A4801F0E7F80028A9
:1025800004D0632C02D80134A4B2F3E7642C06D043
:10259000FFF770FF0820FFF707FF012010BD0020A4
:1025A000FCE7C0460004005010B5FFF763FF0820A9
:1025B000FFF7FAFEFFF726FF0820FFF7F5FEFFF70B
:1025C0004FFF0820FFF7F0FEFFF754FF0820FFF74A
:1025D000EBFEFFF733FF0820FFF7E6FE10BD10B556
:1025E000FFF748FF0820FFF7DFFEFFF7EFFE0820A8
:1025F000FFF7DAFEFFF734FF0820FFF7D5FEFFF7FD
:1026000039FF0820FFF7D0FEFFF7FCFE0820FFF798
:10261000CBFE10BD10B5FFF7F5FE0820FFF7C4FE96
:10262000FFF71EFF0820FFF7BFFEFFF7CFFE0820D1
:10263000FFF7BAFE10BD10B5FFF726FF7120FFF7B8
:1026400039FFFFF789FFFFF75BFF0400FFF7C7FFC4
:10265000FFF7E0FF200010BD70B50400FFF714FF86
:102660007020FFF727FFFFF777FF2000FFF722FF1B
:10267000FFF772FF0020FFF71DFFFFF76DFF00203F
:10268000FFF718FFFFF768FFFFF7C4FF0520FFF70C
:1026900099FEFFF7F9FE7120FFF70CFFFFF75CFFD3
:1026A000FFF72EFFFFF780FFFFF72AFF0600FFF777
:1026B0007BFFFFF725FF0500FFF791FFFFF7AAFF5C
:1026C0000A20FFF77FFEFFF7DFFE7020FFF7F2FE24
:1026D000FFF742FF50235B422343D8B2FFF7EAFEE5
:1026E000FFF73AFF3000FFF7E5FEFFF735FF280060
:1026F000FFF7E0FEFFF730FFFFF78CFF70BD10B56E
:102700001B20FFF7A9FF1C20FFF7A6FF1E20FFF7E5
:10271000A3FF10BD10B5FFF78EFF18230340182B41
:1027200000D110BDFFF7EBFF0A20FFF74BFEF8E7E3
:1027300010B50400064B00221A60002000F0DCFEF9
:10274000E317072018400019C010024B186010BD95
:1027500010E000E0480A00200A4B00229A600A4A72
:10276000126842435A601A6801210A431A60054BF5
:102770001B68064A1340012BF9D0024B1A6800224D
:102780001A60704710E000E0480A002001000100D4
:1027900070B50500E921C900FDF7B6FC0400E92188
:1027A000C9002800FDF736FD0D000E0003E00848C3
:1027B000FFF7D2FF013C002CF9D1002E00D170BDF3
:1027C0006801401B80004019C000FFF7C5FFF6E715
:1027D00040711C0010B5FFF79DFF034B10221A70CB
:1027E00002F0F2FE10BDC0464C0A002010B5064BA8
:1027F0001B78102B04D0112B05D000F011F902E04A
:10280000012000F081F910BD4C0A002010B5064BE4
:102810001B78102B04D0112B05D000F001F902E039
:10282000012000F071F910BD4C0A002010B5064BD4
:102830001B78102B04D0112B05D000F0F1F802E02A
:10284000012000F061F910BD4C0A002010B5064BC4
:102850001B78102B04D0112B05D000F0E1F802E01A
:10286000112000F051F910BD4C0A002010B50400F1
:102870000100164800F06AFF002807D180239B0161
:102880009C4200D010BD00F00DFBFBE780239B01B4
:102890009C420AD08023DB019C4214D080231B027F
:1028A0009C42EFD1FFF7C2FFECE700F0EBFA00F03B
:1028B00007FB074B1B78984202D9FFF7C7FFE1E7F8
:1028C000FFF794FFDEE7FFF7A1FFDBE7000800500A
:1028D0000000002010B500F0E7FC00F03DF910BD4D
:1028E00010B5FA208000FFF753FF1021074800F0D1
:1028F0003AFF074B1B78102B02D0112B03D010BDD1
:1029000000F032F9FBE700F0FEF8F8E700040050B1
:102910004C0A0020F0B5C64600B58AB0142200214A
:1029200005A803F023FF384BD96A04221143D9626A
:10293000D96A0A400192019AD96A80221143D96268
:10294000D96A0A400292029ADA6A01273A43DA62A5
:10295000DA6A3A400392039ADA6A02263243DA626A
:10296000DB6A33400493049B284D00222849280049
:1029700000F0F3FEE0231B020593C4239B030693A0
:102980000024079405A9234800F012FE224B05936A
:102990000323984606930794A02005A9C00500F0DC
:1029A00007FEF723059306970794089405A92800C6
:1029B00000F0FEFD194B059343460693079405A9C5
:1029C000280000F0F5FD80231B0105930694079471
:1029D00005A9280000F0ECFDC0239B0005931123FE
:1029E00006930794089605A9280000F0E1FD00224F
:1029F0000021072000F028FD072000F055FD0AB057
:102A000080BCB846F0BDC046001002400004005033
:102A1000F7030000000800501E99000008F40000B1
:102A200010B572B6C820FFF7B3FE1021014800F0C0
:102A30009AFEF7E70004005000B59BB03422002155
:102A40000DA803F093FE1422002108A803F08EFEC7
:102A500020220021684603F089FE1C490B681C4AAD
:102A60001A4080231B0113430B600A230D93093B7B
:102A70001093102211921293002316930DA800F0C8
:102A8000E1FE00281BD10F2308930E3B099300237E
:102A90000A930B930C93002108A801F061F9002818
:102AA0000FD1212300930023029380239B020193E3
:102AB000684601F067FA002805D11BB000BDFFF79A
:102AC000AFFFFFF7ADFFFFF7ABFFC0460070004060
:102AD000FFE7FFFF10B500F0B3FAFFF7ADFF1020DE
:102AE000FFF726FEFFF716FF00F050F800F0F0F9B0
:102AF000FFF7E8FB00F09EF800F088F9FFF76AFEA8
:102B0000FFF7EEFEFCE7704710B5032810D00CD895
:102B1000012816D002280AD10C4C207801380C4B21
:102B20001978FDF761FC217001E0112809D010BD72
:102B3000064C20780130064B1978FDF755FC2170C2
:102B4000F5E7044B11221A70F1E7C0464D0A002048
:102B5000060000204C0A002010B50100014803F0D7
:102B600069FE10BDF0C5000810B5064B1B78064A7B
:102B7000D35C012B01D0022B00D110BDFFF750FF19
:102B8000FBE7C0464D0A00200400002000B587B0D6
:102B90001422002101A803F0E9FD002300931B4843
:102BA0001B4A026043607F2282608032C260036100
:102BB00043618361C36101F027FB00281CD101A997
:102BC00000230B704B708B70CB600B6101220F48A0
:102BD00001F07CFB002812D101236A461370537068
:102BE00093700023D37001226946084801F0D6FB98
:102BF000002807D107B000BDFFF712FFDFE7FFF79E
:102C00000FFFE9E7FFF70CFFF4E7C046500A00208A
:102C1000002800400268054B9A4200D07047044AE1
:102C2000116D8023DB020B431365F7E7002800409A
:102C30000010024010B50F480F4B036082235B0069
:102C4000436000238360C36003614361802292007C
:102C50008261F13AFF3AC2610362436283620733E1
:102C6000C36201F09DFC002800D110BDFFF7D8FE23
:102C7000FBE7C046740A00200030014010B586B062
:102C800004001422002101A803F070FD22680F4BFC
:102C90009A4201D006B010BD0D4B596B80225201F3
:102CA0000A435A63D96A01221143D962DB6A1A4086
:102CB0000092009BE0230193DE3B029301330493D7
:102CC000A02001A9C00500F073FCE3E7003001403B
:102CD0000010024010B5094B5A6B01210A435A6398
:102CE000996B802252050A439A6300220021042036
:102CF00000F0AAFB042000F0D7FB10BD001002403A
:102D0000FEE7FEE77047704710B500F0ADF910BD63
:102D1000704710B58020800100F02EFD8020C0019A
:102D200000F02AFD8020000200F026FD10BD00000A
:102D300010B5024800F0BEFA10BDC046EC090020F4
:102D400010B5024801F050FE10BDC046100B002027
:102D50000120704710B503F0B9F916230360012074
:102D6000404210BD10B501214942FFF7F3FFFEE7D5
:102D700070B50C001600002504E000E000BF2070D4
:102D800001350134B542F8DB300070BD70B5160076
:102D9000002405E04D1C087800F0F0F8013429000B
:102DA000B442F7DB300070BD012040427047802301
:102DB0009B014B6000207047012070470020704746
:102DC00010B503000C4A0D49521A0D490968002933
:102DD00007D00B490868C318934206D8084A136005
:102DE00010BD074907480860F3E703F06FF90C23AB
:102DF000036001204042F3E700500020000400007F
:102E0000CC0A0020000C00207047000000B583B001
:102E100008220021684603F0A9FC0F480F4B03600D
:102E20000F234360002383600D4AC260436101F0B9
:102E30002FFD00280AD1002300930193694606481C
:102E400001F04AFD002804D103B000BDFFF7E8FD02
:102E5000F1E7FFF7E5FDF7E7D00A0020001000409A
:102E6000FFFF00000268054B9A4200D07047044AF9
:102E7000936B10210B439363F8E7C04600100040AA
:102E800000100240054B1B68196A054A114203D124
:102E90001A6801218A431A607047C046D00A002090
:102EA0001111000010B5FFF7EDFF044B1B68002265
:102EB0005A621A6801210A431A6010BDD00A002024
:102EC000024B1B68586A80B27047C046D00A002087
:102ED00010B50C480C4B0360E1235B0243600023F8
:102EE0008360C36003610C2242618361C36103623A
:102EF000436202F0E1F9002800D110BDFFF790FD18
:102F0000FBE7C046100B00200038014010B586B02A
:102F100004001422002101A803F028FC2268154BAC
:102F20009A4201D006B010BD134B596B8022D201DA
:102F30000A435A63D96A01221143D962DB6A1A40F3
:102F40000092009BC023DB00019302230293013314
:102F5000049301330593A02001A9C00500F028FBCC
:102F6000002200211B2000F06FFA1B2000F09CFAC9
:102F7000D8E7C046003801400010024000B583B0D9
:102F80000190044B012201A9034802F0B4F8019812
:102F900003B000BDFFFF0000100B00200D48854668
:102FA000FFF732FF0C480D490D4A002302E0D458C8
:102FB000C4500433C4188C42F9D30A4A0A4C002383
:102FC00001E013600432A242FBD303F085F8FFF75F
:102FD00081FDFEE70050002000000020D009002005
:102FE000C8D50008D0090020FC0B0020FEE7000037
:102FF00010B504000F4B1978FA208000FDF784F813
:1030000001000D4B1868FDF77FF800F059FA002811
:103010000DD1032C01D901200AE00130002221004A
:10302000404200F011FA054B1C60002000E0012036
:1030300010BDC0460C000020080000201000002039
:1030400010B5084A136840210B4313600320FFF7B3
:10305000CFFF041E02D00124200010BDFFF73AFE6E
:10306000FAE7C04600200240034A1168034B1B7870
:103070005B1813607047C046980B00200C000020BE
:10308000014B18687047C046980B002010B582B0FD
:103090000400084B18680849FDF736F844430194CA
:1030A00002E0019B013B0193019B002BF9D102B08F
:1030B00010BDC0460800002040420F0070B5041E3D
:1030C00000D1E2E0436D002B30D0636DDB0633D4DA
:1030D00022689168042005000D4008422CD1616DE2
:1030E0006B4B19400633FF33194361659168013317
:1030F0000B40012B29D06368C02109068B4228D0E0
:103100008021C9058B4224D0802109068B4220D022
:1031100013699B009B0813615E4B1A685E490A4065
:103120001A601A6861680A431A601BE083655022BE
:103130008354FFF707F9C8E7636D102213436365F3
:1031400050230022E254012070BD1368DB0713D422
:10315000D1E713699B009B081361226813696168BA
:103160000B4313612268D36818218B43D360226814
:10317000D368A1680B43D360464A136847490B40A4
:1031800013601368616B49060B43136023689A68E8
:10319000D20004D49968802252050A439A602368B9
:1031A000DA683F490A40DA602068C268E36821694A
:1031B00002292DD02B432021615C49030B432C2194
:1031C000615C49000B43216B0B43A16989030B43ED
:1031D000E169C9030B431343C360636AC222FF3230
:1031E000934205D02168CA68A06A03431343CB60A9
:1031F0002123E35C012B0DD0E36B012B1ED0236850
:103200001A69D2072DD51A6901218A431A6128E06B
:103210000425CFE71F33E35C002B06D12268D16879
:1032200080235B020B43D360E6E7636D20221343E8
:103230006365A36D1F3A1343A365DDE72268136935
:1032400018490B40136121680A69236C606C0343C1
:10325000A06C034313430B612268136901210B43E4
:1032600013612268536907218B43536122685369B4
:10327000A16B0B4353610023A365636D032293434A
:10328000023A1343636500205EE701205CE7C04615
:10329000FDFEFFFF08270140FFFFC3FFFFFFFFFD0B
:1032A0001902FEFF03FCFFFF0368186C70477047AC
:1032B0007047000070B5040003681D685E686A0707
:1032C00001D5720703D42A072BD5320729D5626DA1
:1032D000D20604D4616D802292000A436265D968E7
:1032E000C0221201114213D12022A25C002A0FD168
:1032F0002A070DD59A68520730D45A680C218A43A0
:103300005A60636D204A13400432FF3213436365F1
:103310002000FFF7DFFAA369012B02D023680C22FB
:103320001A602B0601D5330621D4EB0615D5F3061A
:1033300013D5236B002B03D02368DB68DB0709D58B
:10334000A36D02221343A36523680E321A60200086
:10335000FFF7AEFF236810221A6070BD636D202254
:1033600013436365A36D1F3A1343A365D0E7626DF2
:1033700080235B02134363652000FFF798FF2368F7
:1033800080221A60D1E7C046FEFEFFFF70B5040040
:103390000D005023C35C012B4BD050230122C2549B
:1033A00003689A6852071AD4234A4968914229D07F
:1033B000996A2A685203520B0A439A622B685B038C
:1033C00016D42B689B0305D51C4A11688023DB03A8
:1033D0000B43136050230022E254002070BD436D64
:1033E00020221343436550230022C2540120F5E7F5
:1033F000124A116880231B040B4313600A20FFF755
:1034000045FEDEE7996A2A685203520B914399629E
:103410002B685B0304D5094A136809490B40136004
:103420002B689B03D6D5054A136806490B401360E9
:10343000D0E70220D2E7C046011000000827014073
:10344000FFFF7FFFFFFFBFFF70B5002811DB830880
:10345000134EC0339B009D5903242040C000FF221F
:1034600014008440A54389010A4082402A439A51AE
:1034700070BD0F230340083B9B0806339B00094A9D
:10348000944663445C6803221040C000FC3215007F
:103490008540AC4389010A40824022435A60E7E7F5
:1034A00000E100E000ED00E0002805DB1F231840EC
:1034B0001E3B8340014A13607047C04600E100E0B4
:1034C000013880235B0498420FD2094A50600948B2
:1034D000036A1B021B0AC02109060B430362002377
:1034E000936007331360002070470120FCE7C0465B
:1034F00010E000E000ED00E0042805D0054A136864
:1035000004218B4313607047024A136804210B4364
:103510001360F8E710E000E010B52523C35C022B30
:1035200006D00423C36320330022C254012010BDFF
:10353000026813680E218B43136001680A68012337
:103540009A430A601C22416C0A40016C1C009440A2
:103550004C602522835423330022C2540020E6E726
:1035600010B52523C35C022B03D00423C3630120C1
:1035700010BD026813680E218B43136001680A684E
:1035800001239A430A601C22416C0A40016C1C0012
:1035900094404C602522835423330022C254836B11
:1035A000002B02D098470020E2E70020E0E700006F
:1035B000F0B5002357E084685F000326BE40B443A3
:1035C0002600CC68BC4034438460446894434A6815
:1035D0001609012232409A402243426053E0DC083F
:1035E0000834A400265805321A4092000F2797404D
:1035F000BE430F6997403A003243225057E00526F8
:1036000000E00026A64034003C4302329200474EC0
:103610009451474A9468EA432600AE434F68FF023C
:1036200001D52C432600424CA660E46826001640D3
:103630004F68BF0201D52C4326003D4CE66064680C
:10364000260016404F68BF0301D52C432600384C96
:103650006660246822404E68F60301D52A002243A2
:10366000334C226001330C682200DA405DD0012225
:103670009A40250015401442F4D003244E6834408B
:10368000013C012C97D903224C682240032A09D01F
:10369000C2685E000324B440A24314008A68B240AA
:1036A0002243C26003224C682240022A97D0046859
:1036B0005E0003221700B740BC434F683A40B24057
:1036C00022430260C02292024C681442CAD0194CB4
:1036D000626B0126324362639A08941CA400134E65
:1036E000A75903261E40B4000F26A640B743A026C4
:1036F000F605B04285D0104EB0420ED00F4EB0420B
:103700000DD00F4EB0420CD00E4EB0420BD00E4E2C
:10371000B04200D173E7062674E7012672E702265D
:1037200070E703266EE704266CE7F0BD0000014059
:103730000004014000100240000400500008005046
:10374000000C005000100050001C005003690B4298
:1037500001D0012070470020FCE7002A01D08161E0
:1037600070478162FCE7426913000B401B049143E0
:10377000194381617047000010B5054B5B69184221
:1037800000D110BD024B5861FFF770F8F9E7C04651
:103790000004014010B5264BDA680C231340082BB7
:1037A00042D00C2B11D0042B09D0214B5A68520B5C
:1037B00007231340013380200002984010BD1C4BAA
:1037C0001B68DB0632D51B48F8E7910C0F230B4032
:1037D0001949C85C920D03231A40541C144BDB6832
:1037E000DB0309D5154A00230021FCF723FE220044
:1037F0000023FCF7FFFDE1E70D4B1B68DB0609D555
:103800000C4A00230021FCF715FE22000023FCF7E0
:10381000F1FDD3E70A4A00230021FCF70BFE22004A
:103820000023FCF7E7FDC9E70448C7E70448C5E7FC
:103830000010024000093D0018C6000800127A007E
:103840000024F400F0B583B0041E00D165E2C54B3E
:10385000DA680C251540DE6880235B021E40036891
:10386000DB0736D5082D2CD00C2D28D0636880229C
:103870005202934255D0A022D202934258D0B94B63
:103880001A68B9490A401A601A68802149020A4038
:103890000192019A1A68B5490A401A606368002BC0
:1038A00052D0FFF7EDFB0700AE4B1B689B0310D413
:1038B000FFF7E6FBC01B6428F6D903202EE2002E9A
:1038C000D4D0A84B1B689B0303D56368002B00D1A1
:1038D00026E223689B076DD5E3689A0605D5A148C3
:1038E000026820210A4302608B43042D3CD00C2D3A
:1038F00038D0002B00D1B0E09A490A6809208243F1
:1039000013430B60FFF7BCFB0600964B1B685B077D
:1039100000D599E0FFF7B4FB801B0228F5D90320FE
:10392000FCE1904A116880235B020B431360B5E70A
:103930008C4B19688022D2020A431A6019688022CF
:1039400052020A431A60A9E7FFF79AFB0700854B6A
:103950001B689B03BDD5FFF793FBC01B6428F6D9FA
:103960000320DBE1002EC4D17E4A1268520702D543
:10397000002B00D1D6E17B4E72687D490A40216957
:1039800009020A437260326809218A431343336093
:10399000FFF700FFF26812090F231340754AD35C4A
:1039A000D840754B1860754B1868FFF721FB00284D
:1039B00000D0B3E12368DB062DD5002D60D1694B23
:1039C0001B689B0503D5A369002B00D1ACE1654AB8
:1039D00053686B490B40216A0B43536053681B02C9
:1039E0001B0AE16909060B435360236A590B013135
:1039F00080231B028B40D16809090F220A405D49D0
:103A00008A5CD3405C4A13605C4B1868FFF7F0FA9D
:103A1000002800D082E123681B077DD56369002B55
:103A200067D0504A136D01210B431365FFF728FB44
:103A300006004C4B1B6D9B076ED4FFF721FB801BD0
:103A40000228F6D9032069E146494B68484A1340E9
:103A50002269120213434B60ACE7424A136801210A
:103A60008B431360FFF70CFB06003E4B1B685B07A4
:103A7000A0D5FFF705FB801B0228F6D903204DE1F6
:103A8000A369002B22D0374A116880235B000B43C7
:103A90001360FFF7F5FA0600324B1B689B0506D44E
:103AA000FFF7EEFA801B0228F6D9032036E12D4AF3
:103AB000536833490B40216A0B43536053681B0220
:103AC0001B0AE16909060B435360A4E7254A136802
:103AD0002C490B401360FFF7D3FA0600214B1B68FB
:103AE0009B0598D5FFF7CCFA801B0228F6D9032056
:103AF00014E11C4A136D01218B431365FFF7C0FAD3
:103B00000600184B1B6D9B0706D5FFF7B9FA801B03
:103B10000228F6D9032001E123685B0700D48EE078
:103B2000104B9B6BDB001BD40E4A916B80235B0513
:103B30000B4393630126144B1B68DB0528D5A36850
:103B400080225200934237D0002B4DD1054B1A6D85
:103B50000C490A401A651A6D0C490A401A6531E091
:103B60000026E8E700100240FFFFFEFFFFFFFBFF1B
:103B7000FFE0FFFF00C60008080000201000002042
:103B8000FF1FFFFFFFFEFFFF00700040FFFBFFFF76
:103B90006B4A116880235B000B431360FFF770FAD8
:103BA0000700674B1B68DB05C9D4FFF769FAC01B28
:103BB0006428F6D90320B1E0624A116D80235B00CE
:103BC0000B431365A368002B28D0FFF759FA0700B1
:103BD0005C4B1B6D9B0530D4FFF752FAC01B5A4B50
:103BE0009842F5D9032099E0A022D200934209D04F
:103BF000544B1A6D55490A401A651A6D54490A40CA
:103C00001A65DFE74F4B196D013AFF3A0A431A650F
:103C1000196D802252000A431A65D3E7FFF730FA84
:103C20000700484B1B6D9B0507D5FFF729FAC01B02
:103C3000454B9842F5D9032070E0012E1AD0636AF3
:103C4000002B00D172E00C2D4FD0022B18D03D4A32
:103C5000136840490B401360FFF712FA0400394B18
:103C60001B689B013FD5FFF70BFA001B0228F6D912
:103C7000032053E0334A936B37490B409363DEE7ED
:103C8000304A136833490B401360FFF7F9F9050018
:103C90002C4B1B689B0106D5FFF7F2F9401B02284D
:103CA000F6D903203AE02749CB682C4A1340A26A90
:103CB000E06A0243206B02431343CB600A6880230F
:103CC0005B0413430B60FFF7DBF904001D4B1B681B
:103CD0009B0106D4FFF7D4F9001B0228F6D9032074
:103CE0001CE000201AE0002018E0012B20D0154B2A
:103CF000DA6880235B021340A16A8B421AD1F02359
:103D00009B031340E16A8B4216D1C0231B041A4067
:103D1000236B9A4212D1002000E0012003B0F0BDD5
:103D20000120FBE70120F9E70120F7E70020F5E794
:103D30000120F3E70120F1E70120EFE70120EDE7A3
:103D4000007000400010024088130000FFFEFFFFDB
:103D5000FFFBFFFFFFFFFFFEFFFFFFEFFFFF02FF85
:103D600070B505000C00002800D1D1E06A4B1A683C
:103D7000012313408B4219D32B689B0706D5674A52
:103D8000D368F0218B43A9680B43D3602B68DB0712
:103D90007BD56B68022B20D0032B40D0012B44D065
:103DA0005E4A126892051DD4012099E05A4A1368B0
:103DB00001218B4323431360FFF762F90600564B42
:103DC0001A6801231340A342D6D0FFF759F9801B8C
:103DD000534A9042F3D9032082E0504A126892037A
:103DE00000D497E04D49CA68032082431343CB6057
:103DF000FFF746F906006B68022B1CD0032B28D076
:103E0000012B34D0454BDB680C221A423DD0FFF722
:103E100037F9801B424B9842F4D9032060E03F4AB7
:103E200012689201DED401205AE03C4A126852071F
:103E3000D8D4012054E0394BDA680C231340082B06
:103E400023D0FFF71DF9801B354A9042F3D9032098
:103E500046E0324BDA680C2313400C2B15D0FFF7E9
:103E60000FF9801B2E4B9842F3D9032038E02B4BDF
:103E7000DA680C231340042B07D0FFF701F9801BED
:103E8000274B9842F3D903202AE0234B1A680123D9
:103E90001340A34225D82B685B0706D51F4AD36879
:103EA00020490B40E9680B43D3602B681B0707D5FB
:103EB0001A49CB681C4A13402A69D2001343CB60CD
:103EC000FFF768FC154BDA6812090F231340174AF5
:103ED000D35CD840164B1860164B1868FFF788F86B
:103EE00070BD0D4A136801218B4323431360FFF714
:103EF000C7F80600084B1A6801231340A342CAD032
:103F0000FFF7BEF8801B064B9842F3D90320E7E782
:103F10000120E5E70120E3E7002002400010024015
:103F200088130000FFF8FFFFFFC7FFFF00C600086F
:103F30000800002010000020014B18687047C046A0
:103F40000800002010B5FFF7F7FF044BDA68120AEB
:103F500007231340024AD35CD84010BD0010024032
:103F600010C6000810B5FFF7E7FF044BDA68D20A65
:103F700007231340024AD35CD84010BD0010024012
:103F800010C6000870B5040003689B0655D56A4B3F
:103F90009B6BDB0000D58EE0674A916B80235B054D
:103FA0000B4393630125654B1B68DB0500D484E05C
:103FB000614B1968C0239B031940626813408B4210
:103FC00006D0C0239B0211001940994200D189E01C
:103FD000594B196DC0239B0208001840194216D096
:103FE0001A40824213D023689B0610D5524B186D9D
:103FF000534A02401E6D8021090331431965196D32
:10400000504E314019651A65C30500D571E023682B
:104010009B060FD56368C02292021900114091429D
:1040200000D176E044490B6DC022920260680240E4
:1040300013430B65012D00D175E02368DB0706D51E
:104040003D4AD36C03218B43A1680B43D36423689F
:104050009B0706D5384AD36C0C218B43E1680B4390
:10406000D36423685B0706D5334AD36C36490B40CB
:1040700021690B43D36423681B0706D52E4AD36CF2
:1040800032490B4061690B43D3642368DB0506D5D5
:10409000294AD36C2A490B40A1690B43D364236896
:1040A0001B0646D5244AD36C29490B40E1690B43D2
:1040B000D364002070BD002575E7204A1168802375
:1040C0005B000B431360FEF7DBFF06001B4B1B6816
:1040D000DB0500D56CE7FEF7D3FF801B6428F5D91C
:1040E0000320E7E7144B1B689B0300D470E7012013
:1040F000E0E7FEF7C5FF06000F4B1B6D9B0500D5E3
:1041000085E7FEF7BDFF801B124B9842F4D90320D0
:10411000D0E709490A6810480240C02080030340E4
:1041200013430B607EE7044A936B0C490B40936387
:1041300083E70020BEE7C046001002400070004048
:10414000FFFFFCFFFFFFF7FFFFF3FFFFFFCFFFFFC6
:10415000FFFFF3FF88130000FFFFCFFFFFFFFFEF1C
:1041600070B5040003680A4ADA60FEF789FF0500AB
:104170002368DB689B0608D4FEF782FF401BFA2306
:104180009B009842F4D9032000E0002070BDC04697
:104190005FFF010070B504000368DA68520602D5BB
:1041A0000025280070BDDA6880210A43DA60FEF736
:1041B00067FF060000252368DB685B06F1D4012D4C
:1041C000EFD0FEF75DFF801BFA2292009042F2D9F9
:1041D00021230422E2540125EDE710B50400026812
:1041E000D36880218B43D36003689B689B0601D50D
:1041F000002010BDFFF7B4FF0028FAD021230422CD
:10420000E2540120F5E7000070B5041E4ED02123D2
:10421000C35C002B0BD021230222E2542368DA680E
:10422000D2060AD5002021230122E25470BD20339A
:104230000022C254FEF7EEFCEDE7CA225A62236860
:10424000773A5A622000FFF7A5FF002813D0002814
:104250000BD12268D36C03218B43D3642168CB6CD0
:10426000E26965692A431343CB642368FF225A62DB
:104270000028DBD1D7E7226893680D490B40936093
:1042800021688A68636820690343A0690343134374
:104290008B602368E2681A6121680B69A2681204C6
:1042A00013430B612000FFF798FFD0E70120BDE723
:1042B000BFFF8FFF002302E001330A38C0B2092894
:1042C000FAD81B01DBB218437047000070B5040038
:1042D0000E002023C35C012B59D020230121C1549F
:1042E00001330131C154002A2CD103689B685B065D
:1042F00001D40023F3703078FFF7DCFF05047078F9
:10430000FFF7D8FF00020543B078FFF7D3FF05435E
:10431000F078800505432368CA225A622368773AF9
:104320005A622000FFF736FF00281CD0002802D177
:1043300021230122E2542368FF225A622023002213
:10434000E25470BD03689B685B0601D40023F370E0
:1043500035782D04707800020543B0780543F07875
:1043600080050543D7E723680A4805401D60226899
:10437000936809490B40936021688B68F268306943
:10438000024313438B602000FFF727FFCEE7022094
:10439000D7E7C0467F7F7F00FFFFFBFF70B50400BB
:1043A0000E002023C35C012B4AD020230121C154DD
:1043B00001330131C154002A06D17378D90603D5DF
:1043C00010218B430A337370002A26D1F078FFF74F
:1043D00071FF05047078FFF76DFF00020543B078A8
:1043E000FFF768FF05433078400305432368CA227E
:1043F0005A622368773A5A622000FFF7CBFE002802
:1044000016D0002802D121230122E2542368FF2282
:104410005A6220230022E25470BDF5782D04707892
:1044200000020543B0780543307840030543DDE7DB
:104430002368044805405D602000FFF7CEFEE0E7FA
:104440000220E9E73FFFFF00F0B5D6464F4646465B
:10445000C0B582B006000D0090461F00FEF710FEAA
:104460000A9B181A8146B944FEF70AFE82462E4B73
:104470001B685B011B0D4A465343019333689C68DC
:104480002C40641B63425C41444545D07B1CF5D005
:10449000FEF7F6FD5346C01A48450BD24B46002B9B
:1044A00008D0019A002A00D04A46019B013B0193A3
:1044B0009146E3E732685368E0218B4353608223DF
:1044C0005B0072689A420CD080239B01B26A9A42C8
:1044D00016D051230122F254013B0022F254032052
:1044E0001BE0B36880221202934203D08022D200E4
:1044F0009342E9D13268136840218B431360E3E7AC
:104500003268136809490B401360326811688023D0
:104510009B010B431360DCE7002002B0E0BCBA460D
:10452000B146A846F0BDC04608000020FFDFFFFFEF
:1045300070B584B004000D001600174B18681749B9
:10454000FBF7E2FD020043011B1A98008018C0002F
:10455000039082235B0062689A420BD0039B002B7E
:1045600017D0039B013B039323689B681B06F5D47C
:1045700000200FE000962B00002280212000FFF792
:1045800063FF002806D0636D202213436365032078
:1045900000E0002004B070BD0800002000366E016D
:1045A00070B5041E5ED0436A002B07D10533FF337C
:1045B00042689A4205D00023C36102E000230361F0
:1045C00043610023A3625133E35C002B43D05122AB
:1045D0000221A154206803684025AB430360822375
:1045E0005B006068034084200002A5682840034304
:1045F00080200001E56828400343206901400B4307
:10460000012160690840034380208000A56928409B
:1046100003433820E569284003438020256A284069
:10462000034380208001A56A2840256803432B604E
:10463000608B042303401020656A284025680343EB
:104640006B602068C369084D2B40C361002363651C
:10465000A154002070BD50330022E2542000FEF728
:104660000DFBB4E70120F5E7FFF7FFFFF0B5CE46FD
:1046700000B584B00400019191461D005023C35C35
:10468000012B00D1C9E050230122C254FEF7F8FCEF
:1046900006005123E35CDFB2012B00D0B4E00199A6
:1046A000002900D1B1E04B46002B00D1ADE05123F1
:1046B0000322E2540023636521634A46A286E28610
:1046C000A363A387E3876364236480231B02A26838
:1046D0009A421ED023681A68520603D41A684021F1
:1046E0000A431A6080231B01E2689A421DD0636866
:1046F000002B02D04B46012B53D1236B1B78226831
:104700001373236B01332363E38E013B9BB2E38678
:1047100047E02268136840218B43136022681168C8
:104720008023DB010B431360D4E76368002B02D0C6
:104730004B46012B14D12368226B1288DA60236B5D
:1047400002332363E38E013B9BB2E38608E0FEF76E
:1047500097FC801BA84201D36B1C14D1002D12D0F2
:10476000E38E9BB2002B34D023689A689207EED573
:10477000226B1288DA60236B02332363E38E013BE2
:104780009BB2E386ECE751230122E25403273CE08D
:10479000FEF776FC801BA84201D36B1C14D1002DC0
:1047A00012D0E18E89B2002913D023689A6892074B
:1047B000EED5226B12781A73236B01332363E18EDB
:1047C000013989B2E186ECE751230122E254032743
:1047D0001BE0320029002000FFF7AAFE002801D0CC
:1047E00020236365A368002B06D103932368DA684E
:1047F00003929B680393039B636D002B05D1513398
:104800000122E254002700E0022750230022E25454
:10481000380004B080BCB946F0BD0227F8E70000BC
:1048200003688022D205904208D0154A904205D0F4
:10483000144A904202D0144A904203D1702293430A
:104840004A6813438022D205904208D00C4A904215
:1048500005D00C4A904202D00B4A904203D10B4A39
:104860001340CA681343802293430A6913430360C9
:104870008B68C3620B688362012343617047C04643
:10488000000400400008014000140140FFFCFFFF4D
:1048900070B5041E1ED03923C35C002B14D03925FB
:1048A00002236355210001C9FFF7BAFF01233E220D
:1048B000A354043AA3540132A3540132A354013245
:1048C000A3546355002070BD38330022C254FEF754
:1048D000C9FAE4E70120F6E730B53823C35C012BC1
:1048E00028D038230122C25401330132C254036854
:1048F0005A689C687025AA430D682A435A60036869
:104900008022D205934208D00B4A934205D00B4A2D
:10491000934202D00A4A934204D1802294434A68C7
:1049200014439C6039230122C254013B0022C2542B
:10493000002030BD0220FCE70004004000080140D8
:104940000014014010B5EFF3108C012282F310889F
:1049500001680B68124C23400B608CF31088EFF356
:10496000108C82F3108801688B6893438B608CF302
:104970001088036E012B06D080232022C250002312
:104980000366836610BDEFF3108183F3108802681D
:1049900013683234FF34A343136081F31088EBE7CC
:1049A000DFFEFFFF704710B5EFF31081012383F3A3
:1049B0001088026813684024A343136081F31088B1
:1049C0002023C3670023C366FFF7ECFF10BD7047C9
:1049D00010B5806A00235A228352083A8352FFF7A7
:1049E000F6FF10BD7047000070B504000268D3697F
:1049F00010689568AE491E000E400B4203D199061F
:104A000001D581061DD4002E07D001210E002E40B5
:104A100029421CD1A749084219D1216E012900D190
:104A200098E0D90202D5690200D52EE11A0602D516
:104A3000020600D530E15B0602D5430600D532E11F
:104A400070BDA36E002BFBD020009847F8E7D90774
:104A500007D5C10505D501251562842162582A4371
:104A600062509A0709D5002E07D0226802211162F0
:104A70008231625804252A4362505A0709D5002E14
:104A800007D02268042111628031625802252A432E
:104A900062501A070AD5820601D4002E06D0226879
:104AA00008251562842162582A4362501A050AD5E6
:104AB000420108D5226880210901116284216258CF
:104AC00020252A4362508422A258002AB8D09B068F
:104AD00006D5830604D5A36E002B01D0200098478D
:104AE0008423E25823689B685B0602D42823134280
:104AF00029D02000FFF726FF23689B685B061ED5A0
:104B0000EFF31081012383F310882268936840201B
:104B10008343936081F31088636F002B0BD0664A48
:104B20009A63606FFEF71CFD002800D188E7606F74
:104B3000836B984784E72000FFF749FF80E7200058
:104B4000FFF745FF7CE72000FFF741FF84230022A9
:104B5000E25075E7D90600D463E7C10600D460E7E8
:104B60001023136223689B685B0653D5626F13683A
:104B70005B689BB2002B00D162E75821615A9942D1
:104B800000D85DE75A21635213681B689B060BD55A
:104B9000022363665633E15A0233E35AC91A89B2D3
:104BA0002000FFF71FFF4BE7EFF31080012383F393
:104BB000108821680A68414D2A400A6080F31088F5
:104BC000EFF3108083F3108821688A689A438A6023
:104BD00080F31088EFF3108083F3108821688A68CF
:104BE0004235FF35AA438A6080F310888022202155
:104BF000A15000222266EFF3108183F3108822680F
:104C0000136810208343136081F31088606FFEF7F0
:104C100083FCBDE75823E15A0233E25A891A89B26C
:104C2000E35A9BB2002B00D10AE7002900D107E725
:104C3000EFF31085012383F3108820680268204E6B
:104C40003240026085F31088EFF3108583F31088FB
:104C5000206882689A43826085F310888022202031
:104C6000A05000222266A266EFF3108083F3108822
:104C7000226813681025AB43136080F31088022369
:104C800063662000FFF7AEFEDAE680235B03136263
:104C9000200000F047FBD3E6E36E002B00D1CFE607
:104CA00020009847CCE62000FFF77DFEC8E6C0460E
:104CB0000F08000020010004D1490008FFFEFFFF9B
:104CC000DFFEFFFFD0B5040001688368026913436B
:104CD00042691343C26913430A6899480240134367
:104CE0000B602268536897490B40E1680B4353609F
:104CF000A1692268944B9A4201D0236A19439368B0
:104D0000924803400B4393602268914B9A420DD026
:104D1000904B9A422AD0904B9A425ED08F4B9A4247
:104D20005DD0894B9A4232D010230BE08C4BD96C6A
:104D300003230B40022B42D014D8002B41D0012B6F
:104D400041D1033380498A4253D0E0698022120264
:104D5000904200D18AE0082B00D9EBE09B00814A09
:104D6000D3589F46032B30D10533EBE77C4BD96CEE
:104D70000C230B40082B2AD005D8002B29D0042B5C
:104D8000E0D01023DEE70C2B25D1043BDAE7744B8F
:104D9000DB6CC02109010B40802109018B4220D02E
:104DA00007D8002B1FD08021C9008B421DD10423BE
:104DB000C8E7C02109018B4219D10823C2E70223A9
:104DC000C0E70123BEE71023BCE71023BAE70223A4
:104DD000B8E70023B6E71023B4E70023B2E70023C7
:104DE000B0E70223AEE70023ACE71023AAE71023C5
:104DF000A8E7042B35D00BD8002B2CD0022B05D1E3
:104E0000574B1B68DB062FD4574805E0012070E0A4
:104E1000082B1ED180200002626853009B18834239
:104E200000D97BE01303834200D279E0070E06022B
:104E300050080021801979410023FBF7DBFA4B4B26
:104E4000C2184B4B9A4200D96CE02368D86000200E
:104E50004FE001204DE0FFF775F80028DCD100207D
:104E600047E0FEF797FCF8E74248D5E7082B5BD808
:104E70009B00414AD3589F46FFF764F8002855D05D
:104E8000400063685B08C0186168FBF73DF90200E9
:104E9000103A3A4B9A424BD882B20F239A434008B9
:104EA000083B184010432368D860002021E0FFF73A
:104EB00059F8E3E72A4B1B68DB0604D42A48DFE7EE
:104EC000FEF768FCDAE72B48DAE7FFF73BF8002843
:104ED00032D063685B0818186168FBF715F90200A7
:104EE000103A264B9A4229D823680004000CD86057
:104EF00000200023A366E366D0BDFFF733F8E6E7A2
:104F0000174B1B68DB0607D41748E2E7FEF742FCA5
:104F1000DDE780200002DCE71648DAE70120E8E759
:104F20000120E6E70120E4E70120E2E70020E0E7D6
:104F30000120DEE70120DCE70020DAE70120D8E7E6
:104F4000F369FFEFFFCFFFFF00480040FFF4FFFFD2
:104F50000038014000440040004C00400050004038
:104F60000010024024C600080024F40000FDFFFFEA
:104F7000FFFC0F0000093D0048C60008EFFF0000DD
:104F8000436ADB0706D5026853682C490B40816AE7
:104F90000B435360436A9B0706D502685368284950
:104FA0000B40C16A0B435360436A5B0706D5026836
:104FB000536824490B40016B0B435360436A1B0742
:104FC00006D50268536820490B40416B0B43536080
:104FD000436ADB0606D5026893681C490B40816B67
:104FE0000B439360436A9B0606D502689368184991
:104FF0000B40C16B0B439360436A5B060BD50268A1
:10500000536814490B40016C0B43536080235B03CE
:10501000026C9A420AD0436A1B0606D5026853689E
:105020000D490B40816C0B43536070470268536815
:105030000A490B40416C0B435360ECE7FFFFFDFF57
:10504000FFFFFEFFFFFFFBFFFF7FFFFFFFEFFFFF05
:10505000FFDFFFFFFFFFEFFFFFFFF7FFFFFF9FFFF8
:10506000F8B5CE46474680B506000D0017009946B4
:10507000089B98463368DC692C40641B63425C41A2
:10508000BC422FD143460133F4D0FDF7F9FF4B4624
:10509000C01A40452BD84346002B2AD033681A68E3
:1050A0005207E7D5DA69120710D4DA691205E1D59B
:1050B000802212011A623000FFF744FC8423202270
:1050C000F2500C3B0022F25403200CE008241C6236
:1050D0003000FFF737FC8423F4500C3B0022F254DD
:1050E000012000E00020C0BCB946B046F8BD032056
:1050F000F9E70320F7E7F0B5C64600B582B0040033
:105100000D0090461E00C36F202B62D1002965D090
:10511000002A65D080235B0182689A4204D103692A
:10512000002B01D1CB075DD484230022E250633BE6
:10513000E367FDF7A5FF070050234246E252023322
:10514000E25280235B01A2689A4202D00023984673
:1051500017E02369002B29D00023984611E0202373
:10516000E367032036E043461B882268DB05DB0D3E
:10517000936202239C46E0445223E25A013A92B2DF
:10518000E2525223E35A9BB2002B12D000963B000E
:10519000002280212000FFF763FF0028DFD1002DCF
:1051A000E1D02A7823689A620135E5E7A846002510
:1051B000E7E700963B00002240212000FFF750FF68
:1051C000002802D12023E36704E02023E3670320C3
:1051D00000E0022002B080BCB846F0BD0120F9E733
:1051E0000120F7E70120F5E730B583B00400842300
:1051F0000022C250FDF744FF050022681268130721
:105200000FD423681B685B0729D42023E36780221F
:10521000A350002323666366083AA354002003B01A
:1052200030BD8021224B009303000022890320001F
:10523000FFF716FF0028E4D0EFF31081012383F37A
:1052400010882268136880208343136081F31088DC
:105250002023E36758330022E2547D38DFE78021C2
:10526000134B00932B000022C9032000FFF7F8FE28
:105270000028CAD0EFF31080012282F31088216841
:105280000B680C4D2B400B6080F31088EFF31080FF
:1052900082F3108821688B6893438B6080F31088B9
:1052A00080231F32E250083B0022E2540320B6E77D
:1052B000FFFFFF01DFFEFFFF10B5041E2ED0C36FFE
:1052C000002B21D02423E3672268136801218B433C
:1052D00013602000FFF7F6FC012814D0636A002B4E
:1052E00018D1226853680E490B40536022689368B6
:1052F0002A218B4393602268136829390B4313607A
:105300002000FFF771FF10BD78330022C254FDF773
:10531000FDFDD7E72000FFF733FEE2E70120F2E7CB
:10532000FFB7FFFF7047000000B583B06B46D91D83
:105330000870FA239B0001220248FFF797F903B097
:1053400000BDC046740A002010B5094C002202219D
:105350002000FEF702FA002201212000FEF7FDF9ED
:10536000012204212000FEF7F8F9002010BDC046FC
:105370000004005010B5084C002202212000FEF766
:10538000ECF9002201212000FEF7E7F900220421B8
:105390002000FEF7E2F910BD0004005010B50D4CDE
:1053A000012204212000FEF7D8F9C820FDF7F0F90A
:1053B000002204212000FEF7D0F90220FDF7E8F9D1
:1053C000012204212000FEF7C8F9C820FDF7E0F90A
:1053D00010BDC0460004005070B50500094C002205
:1053E00002212000FEF7B9F9002201212000FEF77A
:1053F000B4F92800FFF798FF012201212000FEF7F1
:10540000ACF970BD0004005070B50500094C0122D4
:1054100002212000FEF7A1F9002201212000FEF761
:105420009CF92800FFF780FF012201212000FEF7F0
:1054300094F970BD0004005010B5094801F05CFA01
:1054400002E06420FDF7A4F9802109010548FEF778
:105450007DF90028F5D0044801F04EFA10BDC04691
:105460006CC600080004005084C6000810B5122065
:10547000FFF7B2FF0A20FDF78BF9FFF7DDFF10BD44
:1054800010B5FFF78BFF0620FFF7A6FF1720FFF7E9
:10549000BBFF1720FFF7B8FF1720FFF7B5FF042069
:1054A000FFF79AFFFFF7C8FF0020FFF795FF8F2057
:1054B000FFF7AAFF5020FFF78FFFF020FFF7A4FFB0
:1054C0006120FFF789FF6820FFF79EFF0020FFF7AC
:1054D0009BFFD420FFF798FF10BD70B51020FFF799
:1054E0007BFF002508E0FF20FFF78EFF0134A4B208
:1054F0000C2CF8D90135ADB2D32D01D80024F7E733
:105500009220FFF769FF1320FFF766FF002508E0F0
:10551000FF20FFF779FF0134A4B20C2CF8D9013534
:10552000ADB2D32D01D80024F7E79220FFF754FF46
:10553000FFF79CFF70BDF8B506000F001020FFF7C5
:105540004BFF00250DE06B005B199B005B19E31816
:10555000F05CFFF759FF0134A4B20C2CF3D90135EC
:10556000ADB2D32D01D80024F7E79220FFF734FF26
:10557000002F16D01320FFF72FFF002501E0013583
:10558000ADB2D32D0DD800240C2CF8D86B005B19CC
:105590009B005B19E318F85CFFF736FF0134A4B2F7
:1055A000F2E79220FFF718FFFFF760FFF8BD10B594
:1055B0000220FFF711FFFFF73FFF0720FFF70CFF67
:1055C000A520FFF721FF10BDF0B585B0484801F0D8
:1055D00093F9FFF7B9FE474801F08EF9FFF750FF46
:1055E000FFF77BFFFA204000FDF7D2F8424800F0B9
:1055F00095FD041E00D175E0404801F07DF9872338
:10560000FF2700975B00D4226821200000F088F873
:10561000200000F0ABF8FF2000F062F9384801F0FC
:105620006BF9200000F0A2F8FF2000F059F90126E4
:105630000096012300224621052000F0A7F90096DC
:10564000022300225021052000F0A0F90025029538
:1056500001960095642332224621142000F00EFAB0
:10566000029501960095642314224621322000F011
:1056700005FA02960196009564235A2246213C20A1
:1056800000F08AFA0195009600230F2255217D2013
:1056900000F0F0FA019500971A4B1B4A0F210520E4
:1056A00000F026FC194801F027F900212000FFF73F
:1056B00042FFFA20C000FDF76BF8154801F01CF915
:1056C000FFF70BFF134801F017F9FFF770FF2000F9
:1056D00000F02EFD104801F00FF9FFF74BFE0020FF
:1056E00005B0F0BD0D4801F007F901204042F7E791
:1056F000A4C60008BCC600081405000000C70008C6
:1057000024C700081400002038C700083CC7000860
:105710004CC7000858C7000868C70008D8C600086A
:1057200070B504AC2588104C0026266020602181CD
:105730006281A5810220E08248070ED1CC080A4888
:1057400044828282C38100240482002B08D0B42BBF
:1057500006D0054B9A80D98005E0CC080134EEE7ED
:10576000014B9980DA8070BD9C0B0020014B1860C2
:105770007047C0469C0B002070B5574B9B888342F6
:1057800047D3554BDB888B4243D3534BDB89B42B38
:105790004FD042D8002B08D05A2B3DD14E4B1B89FD
:1057A0005B1A9BB2013B010098B24B4B1B8A022B48
:1057B00059D04AD8002B07D0012B2DD1464B1B893D
:1057C000181A80B2013880B2434B1B89834251D3EF
:1057D000414B5B898B424DD33F4BDB8A022B4DD033
:1057E000042B00D163E0072B16D14408A4B23A4D34
:1057F0006B8A594361182D686B5C0124204080003E
:10580000EF340441A3435BB2120102411A436A54CC
:1058100002E0324801F070F870BD87246400A342B2
:10582000FAD12D4B5B891B1A9BB2013B080099B240
:10583000BBE7294C2389181A80B2013880B26389EA
:10584000591A89B2013989B2AFE7032BE4D1224C4E
:105850002389181A80B2013880B26389591A89B233
:10586000013989B2B0E71C4B5B89591A89B20139F9
:1058700089B2A9E7194801F03FF8CDE7C3089BB208
:10588000154D6C8A614359182B685C18595C002AC5
:1058900006D1072318407933034199432170BBE7B0
:1058A00007231840793303410B432370B4E784087E
:1058B000A4B2094D6B8A59436118032422402D6814
:1058C0006B5C20404000BD340441A3435BB29201B5
:1058D00002411A436A549FE79C0B002074CD0008D4
:1058E00030B5294BDB8A022B17D0042B32D0072B83
:1058F00047D030BD6343D31823490968C8540132E7
:1059000092B2214B5B8A9342F4D80134A4B21E4B6D
:105910009B8AA342EDD90022F3E70024F7E7634313
:10592000CA18830105012B435BB285002B435BB290
:10593000154D2D680343AB54013189B2124B5B8A7C
:105940008B42ECD80134A4B20F4B9B8AA342D0D92E
:105950000021F3E70024F7E70135ADB20A4B9B8A3B
:10596000AB42C6D90022084B5B8A9342F4D96B4301
:10597000D3180101044C24680143E154013292B26E
:10598000F1E70025EAE7C0469C0B0020F8B5DE46AB
:1059900057464E464546E0B506000F0090461D00AE
:1059A0000AAB1A78314B9B88834208D32F4BDB8894
:1059B0008B4204D3012A3BD00023994650E02C4867
:1059C00000F09AFF294CA28831002A4800F032FFEB
:1059D000E2883900284800F02DFFF0BCBB46B246F3
:1059E000A946A046F8BD5C46013423B29B46DA4680
:1059F0006B00013B99469B45EFDA00231A004B45AB
:105A0000F1DA51467118491BEDD4BA18521BEAD489
:105A10005A46B01880B29CB2E11989B2491B89B2CA
:105A2000401B80B24246FFF7A7FE631C1BB2E5E7AE
:105A300000239B46DBE74B46F01880B2A4B2E11985
:105A400089B2013989B2013880B24246FFF794FE2B
:105A5000013424B25445EEDB4B4601331BB2994668
:105A6000AA46A945B9DA0024F4E7C0469C0B0020F9
:105A70009CCD0008DCCD000800CE0008F0B5DE4665
:105A800057464E464546E0B58BB005000E00100067
:105A900005921C00049314AB1988884615AB19783D
:105AA0008B4616AB19788A46394B9B88AB4225D377
:105AB000374AD288B24221D383421FD3A2421DD398
:105AC000059A531BD9175B184B409946049B9B1BA7
:105AD000D817191841400791D917CB1A4B40039397
